{
  "_format": "hh-sol-artifact-1",
  "contractName": "BaseImmutableAdminUpgradeabilityProxy",
  "sourceName": "contracts/proxy.sol",
  "abi": [
    {
      "inputs": [
        {
          "internalType": "address",
          "name": "admin",
          "type": "address"
        }
      ],
      "stateMutability": "nonpayable",
      "type": "constructor"
    },
    {
      "anonymous": false,
      "inputs": [
        {
          "indexed": true,
          "internalType": "address",
          "name": "implementation",
          "type": "address"
        }
      ],
      "name": "Upgraded",
      "type": "event"
    },
    {
      "stateMutability": "payable",
      "type": "fallback"
    },
    {
      "inputs": [],
      "name": "admin",
      "outputs": [
        {
          "internalType": "address",
          "name": "",
          "type": "address"
        }
      ],
      "stateMutability": "nonpayable",
      "type": "function"
    },
    {
      "inputs": [],
      "name": "implementation",
      "outputs": [
        {
          "internalType": "address",
          "name": "",
          "type": "address"
        }
      ],
      "stateMutability": "nonpayable",
      "type": "function"
    },
    {
      "inputs": [
        {
          "internalType": "address",
          "name": "newImplementation",
          "type": "address"
        }
      ],
      "name": "upgradeTo",
      "outputs": [],
      "stateMutability": "nonpayable",
      "type": "function"
    },
    {
      "inputs": [
        {
          "internalType": "address",
          "name": "newImplementation",
          "type": "address"
        },
        {
          "internalType": "bytes",
          "name": "data",
          "type": "bytes"
        }
      ],
      "name": "upgradeToAndCall",
      "outputs": [],
      "stateMutability": "payable",
      "type": "function"
    }
  ],
  "bytecode": "0x60a060405234801561001057600080fd5b5060405161096f38038061096f83398181016040528101906100329190610084565b8073ffffffffffffffffffffffffffffffffffffffff1660808173ffffffffffffffffffffffffffffffffffffffff1660601b81525050506100f6565b60008151905061007e816100df565b92915050565b60006020828403121561009657600080fd5b60006100a48482850161006f565b91505092915050565b60006100b8826100bf565b9050919050565b600073ffffffffffffffffffffffffffffffffffffffff82169050919050565b6100e8816100ad565b81146100f357600080fd5b50565b60805160601c61083861013760003960008181610105015281816101730152818161025d015281816102ce01528181610322015261035601526108386000f3fe6080604052600436106100435760003560e01c80633659cfe61461004e5780634f1ef286146100775780635c60da1b14610093578063f851a440146100be57610044565b5b61004c6100e9565b005b34801561005a57600080fd5b5061007560048036038101906100709190610581565b610103565b005b610091600480360381019061008c91906105aa565b610171565b005b34801561009f57600080fd5b506100a8610259565b6040516100b59190610695565b60405180910390f35b3480156100ca57600080fd5b506100d36102ca565b6040516100e09190610695565b60405180910390f35b6100f1610354565b6101016100fc6103ed565b61041e565b565b7f000000000000000000000000000000000000000000000000000000000000000073ffffffffffffffffffffffffffffffffffffffff163373ffffffffffffffffffffffffffffffffffffffff1614156101655761016081610444565b61016e565b61016d6100e9565b5b50565b7f000000000000000000000000000000000000000000000000000000000000000073ffffffffffffffffffffffffffffffffffffffff163373ffffffffffffffffffffffffffffffffffffffff16141561024b576101ce83610444565b60008373ffffffffffffffffffffffffffffffffffffffff1683836040516101f792919061067c565b600060405180830381855af49150503d8060008114610232576040519150601f19603f3d011682016040523d82523d6000602084013e610237565b606091505b505090508061024557600080fd5b50610254565b6102536100e9565b5b505050565b60007f000000000000000000000000000000000000000000000000000000000000000073ffffffffffffffffffffffffffffffffffffffff163373ffffffffffffffffffffffffffffffffffffffff1614156102be576102b76103ed565b90506102c7565b6102c66100e9565b5b90565b60007f000000000000000000000000000000000000000000000000000000000000000073ffffffffffffffffffffffffffffffffffffffff163373ffffffffffffffffffffffffffffffffffffffff161415610348577f00000000000000000000000000000000000000000000000000000000000000009050610351565b6103506100e9565b5b90565b7f000000000000000000000000000000000000000000000000000000000000000073ffffffffffffffffffffffffffffffffffffffff163373ffffffffffffffffffffffffffffffffffffffff1614156103e3576040517f08c379a00000000000000000000000000000000000000000000000000000000081526004016103da906106b0565b60405180910390fd5b6103eb610493565b565b6000807f360894a13ba1a3210667c828492db98dca3e2076cc3735a920a3ca505d382bbc60001b9050805491505090565b3660008037600080366000845af43d6000803e806000811461043f573d6000f35b3d6000fd5b61044d81610495565b8073ffffffffffffffffffffffffffffffffffffffff167fbc7cd75a20ee27fd9adebab32041f755214dbc6bffa90cc0225b39da2e5c2d3b60405160405180910390a250565b565b61049e8161050c565b6104dd576040517f08c379a00000000000000000000000000000000000000000000000000000000081526004016104d4906106d0565b60405180910390fd5b60007f360894a13ba1a3210667c828492db98dca3e2076cc3735a920a3ca505d382bbc60001b90508181555050565b600080823f90506000801b811415915050919050565b600081359050610531816107eb565b92915050565b60008083601f84011261054957600080fd5b8235905067ffffffffffffffff81111561056257600080fd5b60208301915083600182028301111561057a57600080fd5b9250929050565b60006020828403121561059357600080fd5b60006105a184828501610522565b91505092915050565b6000806000604084860312156105bf57600080fd5b60006105cd86828701610522565b935050602084013567ffffffffffffffff8111156105ea57600080fd5b6105f686828701610537565b92509250509250925092565b61060b8161070c565b82525050565b600061061d83856106f0565b935061062a83858461073e565b82840190509392505050565b60006106436032836106fb565b915061064e8261074d565b604082019050919050565b6000610666603b836106fb565b91506106718261079c565b604082019050919050565b6000610689828486610611565b91508190509392505050565b60006020820190506106aa6000830184610602565b92915050565b600060208201905081810360008301526106c981610636565b9050919050565b600060208201905081810360008301526106e981610659565b9050919050565b600081905092915050565b600082825260208201905092915050565b60006107178261071e565b9050919050565b600073ffffffffffffffffffffffffffffffffffffffff82169050919050565b82818337600083830152505050565b7f43616e6e6f742063616c6c2066616c6c6261636b2066756e6374696f6e20667260008201527f6f6d207468652070726f78792061646d696e0000000000000000000000000000602082015250565b7f43616e6e6f742073657420612070726f787920696d706c656d656e746174696f60008201527f6e20746f2061206e6f6e2d636f6e747261637420616464726573730000000000602082015250565b6107f48161070c565b81146107ff57600080fd5b5056fea2646970667358221220e95f74df9a7200d20c9e30d56c68093b3c4675e2b490111e4b912d7294f6babe64736f6c63430008030033",
  "linkReferences": {},
  "deployedLinkReferences": {}
}