{
  "_format": "hh-sol-artifact-1",
  "contractName": "InitializableUpgradeabilityProxy",
  "sourceName": "contracts/proxy.sol",
  "abi": [
    {
      "anonymous": false,
      "inputs": [
        {
          "indexed": true,
          "internalType": "address",
          "name": "implementation",
          "type": "address"
        }
      ],
      "name": "Upgraded",
      "type": "event"
    },
    {
      "stateMutability": "payable",
      "type": "fallback"
    },
    {
      "inputs": [
        {
          "internalType": "address",
          "name": "_logic",
          "type": "address"
        },
        {
          "internalType": "bytes",
          "name": "_data",
          "type": "bytes"
        }
      ],
      "name": "initialize",
      "outputs": [],
      "stateMutability": "payable",
      "type": "function"
    }
  ],
  "bytecode": "0x608060405234801561001057600080fd5b50610669806100206000396000f3fe6080604052600436106100225760003560e01c8063d1f578941461002d57610023565b5b61002b610049565b005b6100476004803603810190610042919061031f565b610063565b005b6100516101bc565b61006161005c6101be565b6101ef565b565b600073ffffffffffffffffffffffffffffffffffffffff166100836101be565b73ffffffffffffffffffffffffffffffffffffffff16146100a357600080fd5b60017f360894a13ba1a3210667c828492db98dca3e2076cc3735a920a3ca505d382bbd60001c6100d3919061047b565b60001b7f360894a13ba1a3210667c828492db98dca3e2076cc3735a920a3ca505d382bbc60001b1461012e577f4e487b7100000000000000000000000000000000000000000000000000000000600052600160045260246000fd5b61013782610215565b6000815111156101b85760008273ffffffffffffffffffffffffffffffffffffffff168260405161016891906103c7565b600060405180830381855af49150503d80600081146101a3576040519150601f19603f3d011682016040523d82523d6000602084013e6101a8565b606091505b50509050806101b657600080fd5b505b5050565b565b6000807f360894a13ba1a3210667c828492db98dca3e2076cc3735a920a3ca505d382bbc60001b9050805491505090565b3660008037600080366000845af43d6000803e8060008114610210573d6000f35b3d6000fd5b61021e8161028c565b61025d576040517f08c379a0000000000000000000000000000000000000000000000000000000008152600401610254906103de565b60405180910390fd5b60007f360894a13ba1a3210667c828492db98dca3e2076cc3735a920a3ca505d382bbc60001b90508181555050565b600080823f90506000801b811415915050919050565b60006102b56102b084610423565b6103fe565b9050828152602081018484840111156102cd57600080fd5b6102d88482856104eb565b509392505050565b6000813590506102ef8161061c565b92915050565b600082601f83011261030657600080fd5b81356103168482602086016102a2565b91505092915050565b6000806040838503121561033257600080fd5b6000610340858286016102e0565b925050602083013567ffffffffffffffff81111561035d57600080fd5b610369858286016102f5565b9150509250929050565b600061037e82610454565b610388818561045f565b93506103988185602086016104fa565b80840191505092915050565b60006103b1603b8361046a565b91506103bc826105cd565b604082019050919050565b60006103d38284610373565b915081905092915050565b600060208201905081810360008301526103f7816103a4565b9050919050565b6000610408610419565b9050610414828261052d565b919050565b6000604051905090565b600067ffffffffffffffff82111561043e5761043d61058d565b5b610447826105bc565b9050602081019050919050565b600081519050919050565b600081905092915050565b600082825260208201905092915050565b6000610486826104e1565b9150610491836104e1565b9250828210156104a4576104a361055e565b5b828203905092915050565b60006104ba826104c1565b9050919050565b600073ffffffffffffffffffffffffffffffffffffffff82169050919050565b6000819050919050565b82818337600083830152505050565b60005b838110156105185780820151818401526020810190506104fd565b83811115610527576000848401525b50505050565b610536826105bc565b810181811067ffffffffffffffff821117156105555761055461058d565b5b80604052505050565b7f4e487b7100000000000000000000000000000000000000000000000000000000600052601160045260246000fd5b7f4e487b7100000000000000000000000000000000000000000000000000000000600052604160045260246000fd5b6000601f19601f8301169050919050565b7f43616e6e6f742073657420612070726f787920696d706c656d656e746174696f60008201527f6e20746f2061206e6f6e2d636f6e747261637420616464726573730000000000602082015250565b610625816104af565b811461063057600080fd5b5056fea26469706673582212201ddf2ef5da2e4523a1c860ca0e514fc7345f6fc9e5b08d6e7f260d1991973d1364736f6c63430008030033",
  "linkReferences": {},
  "deployedLinkReferences": {}
}