{
  "_format": "hh-sol-artifact-1",
  "contractName": "InitializableImmutableAdminUpgradeabilityProxy",
  "sourceName": "contracts/proxy.sol",
  "abi": [
    {
      "inputs": [
        {
          "internalType": "address",
          "name": "admin",
          "type": "address"
        }
      ],
      "stateMutability": "nonpayable",
      "type": "constructor"
    },
    {
      "anonymous": false,
      "inputs": [
        {
          "indexed": true,
          "internalType": "address",
          "name": "implementation",
          "type": "address"
        }
      ],
      "name": "Upgraded",
      "type": "event"
    },
    {
      "stateMutability": "payable",
      "type": "fallback"
    },
    {
      "inputs": [],
      "name": "admin",
      "outputs": [
        {
          "internalType": "address",
          "name": "",
          "type": "address"
        }
      ],
      "stateMutability": "nonpayable",
      "type": "function"
    },
    {
      "inputs": [],
      "name": "implementation",
      "outputs": [
        {
          "internalType": "address",
          "name": "",
          "type": "address"
        }
      ],
      "stateMutability": "nonpayable",
      "type": "function"
    },
    {
      "inputs": [
        {
          "internalType": "address",
          "name": "_logic",
          "type": "address"
        },
        {
          "internalType": "bytes",
          "name": "_data",
          "type": "bytes"
        }
      ],
      "name": "initialize",
      "outputs": [],
      "stateMutability": "payable",
      "type": "function"
    },
    {
      "inputs": [
        {
          "internalType": "address",
          "name": "newImplementation",
          "type": "address"
        }
      ],
      "name": "upgradeTo",
      "outputs": [],
      "stateMutability": "nonpayable",
      "type": "function"
    },
    {
      "inputs": [
        {
          "internalType": "address",
          "name": "newImplementation",
          "type": "address"
        },
        {
          "internalType": "bytes",
          "name": "data",
          "type": "bytes"
        }
      ],
      "name": "upgradeToAndCall",
      "outputs": [],
      "stateMutability": "payable",
      "type": "function"
    }
  ],
  "bytecode": "0x60a060405234801561001057600080fd5b50604051610d71380380610d7183398181016040528101906100329190610086565b808073ffffffffffffffffffffffffffffffffffffffff1660808173ffffffffffffffffffffffffffffffffffffffff1660601b8152505050506100f8565b600081519050610080816100e1565b92915050565b60006020828403121561009857600080fd5b60006100a684828501610071565b91505092915050565b60006100ba826100c1565b9050919050565b600073ffffffffffffffffffffffffffffffffffffffff82169050919050565b6100ea816100af565b81146100f557600080fd5b50565b60805160601c610c386101396000396000818161012c0152818161019a015281816102840152818161044e015281816104a201526105fd0152610c386000f3fe60806040526004361061004e5760003560e01c80633659cfe6146100595780634f1ef286146100825780635c60da1b1461009e578063d1f57894146100c9578063f851a440146100e55761004f565b5b610057610110565b005b34801561006557600080fd5b50610080600480360381019061007b9190610773565b61012a565b005b61009c6004803603810190610097919061079c565b610198565b005b3480156100aa57600080fd5b506100b3610280565b6040516100c09190610923565b60405180910390f35b6100e360048036038101906100de91906107f4565b6102f1565b005b3480156100f157600080fd5b506100fa61044a565b6040516101079190610923565b60405180910390f35b6101186104d4565b6101286101236104de565b61050f565b565b7f000000000000000000000000000000000000000000000000000000000000000073ffffffffffffffffffffffffffffffffffffffff163373ffffffffffffffffffffffffffffffffffffffff16141561018c5761018781610535565b610195565b610194610110565b5b50565b7f000000000000000000000000000000000000000000000000000000000000000073ffffffffffffffffffffffffffffffffffffffff163373ffffffffffffffffffffffffffffffffffffffff161415610272576101f583610535565b60008373ffffffffffffffffffffffffffffffffffffffff16838360405161021e9291906108f3565b600060405180830381855af49150503d8060008114610259576040519150601f19603f3d011682016040523d82523d6000602084013e61025e565b606091505b505090508061026c57600080fd5b5061027b565b61027a610110565b5b505050565b60007f000000000000000000000000000000000000000000000000000000000000000073ffffffffffffffffffffffffffffffffffffffff163373ffffffffffffffffffffffffffffffffffffffff1614156102e5576102de6104de565b90506102ee565b6102ed610110565b5b90565b600073ffffffffffffffffffffffffffffffffffffffff166103116104de565b73ffffffffffffffffffffffffffffffffffffffff161461033157600080fd5b60017f360894a13ba1a3210667c828492db98dca3e2076cc3735a920a3ca505d382bbd60001c61036191906109fb565b60001b7f360894a13ba1a3210667c828492db98dca3e2076cc3735a920a3ca505d382bbc60001b146103bc577f4e487b7100000000000000000000000000000000000000000000000000000000600052600160045260246000fd5b6103c582610584565b6000815111156104465760008273ffffffffffffffffffffffffffffffffffffffff16826040516103f6919061090c565b600060405180830381855af49150503d8060008114610431576040519150601f19603f3d011682016040523d82523d6000602084013e610436565b606091505b505090508061044457600080fd5b505b5050565b60007f000000000000000000000000000000000000000000000000000000000000000073ffffffffffffffffffffffffffffffffffffffff163373ffffffffffffffffffffffffffffffffffffffff1614156104c8577f000000000000000000000000000000000000000000000000000000000000000090506104d1565b6104d0610110565b5b90565b6104dc6105fb565b565b6000807f360894a13ba1a3210667c828492db98dca3e2076cc3735a920a3ca505d382bbc60001b9050805491505090565b3660008037600080366000845af43d6000803e8060008114610530573d6000f35b3d6000fd5b61053e81610584565b8073ffffffffffffffffffffffffffffffffffffffff167fbc7cd75a20ee27fd9adebab32041f755214dbc6bffa90cc0225b39da2e5c2d3b60405160405180910390a250565b61058d81610694565b6105cc576040517f08c379a00000000000000000000000000000000000000000000000000000000081526004016105c39061095e565b60405180910390fd5b60007f360894a13ba1a3210667c828492db98dca3e2076cc3735a920a3ca505d382bbc60001b90508181555050565b7f000000000000000000000000000000000000000000000000000000000000000073ffffffffffffffffffffffffffffffffffffffff163373ffffffffffffffffffffffffffffffffffffffff16141561068a576040517f08c379a00000000000000000000000000000000000000000000000000000000081526004016106819061093e565b60405180910390fd5b6106926106aa565b565b600080823f90506000801b811415915050919050565b565b60006106bf6106ba846109a3565b61097e565b9050828152602081018484840111156106d757600080fd5b6106e2848285610a6b565b509392505050565b6000813590506106f981610beb565b92915050565b60008083601f84011261071157600080fd5b8235905067ffffffffffffffff81111561072a57600080fd5b60208301915083600182028301111561074257600080fd5b9250929050565b600082601f83011261075a57600080fd5b813561076a8482602086016106ac565b91505092915050565b60006020828403121561078557600080fd5b6000610793848285016106ea565b91505092915050565b6000806000604084860312156107b157600080fd5b60006107bf868287016106ea565b935050602084013567ffffffffffffffff8111156107dc57600080fd5b6107e8868287016106ff565b92509250509250925092565b6000806040838503121561080757600080fd5b6000610815858286016106ea565b925050602083013567ffffffffffffffff81111561083257600080fd5b61083e85828601610749565b9150509250929050565b61085181610a2f565b82525050565b600061086383856109df565b9350610870838584610a6b565b82840190509392505050565b6000610887826109d4565b61089181856109df565b93506108a1818560208601610a7a565b80840191505092915050565b60006108ba6032836109ea565b91506108c582610b4d565b604082019050919050565b60006108dd603b836109ea565b91506108e882610b9c565b604082019050919050565b6000610900828486610857565b91508190509392505050565b6000610918828461087c565b915081905092915050565b60006020820190506109386000830184610848565b92915050565b60006020820190508181036000830152610957816108ad565b9050919050565b60006020820190508181036000830152610977816108d0565b9050919050565b6000610988610999565b90506109948282610aad565b919050565b6000604051905090565b600067ffffffffffffffff8211156109be576109bd610b0d565b5b6109c782610b3c565b9050602081019050919050565b600081519050919050565b600081905092915050565b600082825260208201905092915050565b6000610a0682610a61565b9150610a1183610a61565b925082821015610a2457610a23610ade565b5b828203905092915050565b6000610a3a82610a41565b9050919050565b600073ffffffffffffffffffffffffffffffffffffffff82169050919050565b6000819050919050565b82818337600083830152505050565b60005b83811015610a98578082015181840152602081019050610a7d565b83811115610aa7576000848401525b50505050565b610ab682610b3c565b810181811067ffffffffffffffff82111715610ad557610ad4610b0d565b5b80604052505050565b7f4e487b7100000000000000000000000000000000000000000000000000000000600052601160045260246000fd5b7f4e487b7100000000000000000000000000000000000000000000000000000000600052604160045260246000fd5b6000601f19601f8301169050919050565b7f43616e6e6f742063616c6c2066616c6c6261636b2066756e6374696f6e20667260008201527f6f6d207468652070726f78792061646d696e0000000000000000000000000000602082015250565b7f43616e6e6f742073657420612070726f787920696d706c656d656e746174696f60008201527f6e20746f2061206e6f6e2d636f6e747261637420616464726573730000000000602082015250565b610bf481610a2f565b8114610bff57600080fd5b5056fea264697066735822122081db6db4d7bb1509f291adaf8a15baec4092a41fa9315b7291c9e622885dc4d364736f6c63430008030033",
  "linkReferences": {},
  "deployedLinkReferences": {}
}