{
  "_format": "hh-sol-artifact-1",
  "contractName": "ArChe_Pools_Remix",
  "sourceName": "contracts/ArchePoolsRemix.sol",
  "abi": [
    {
      "anonymous": false,
      "inputs": [
        {
          "indexed": true,
          "internalType": "address",
          "name": "user",
          "type": "address"
        },
        {
          "indexed": false,
          "internalType": "uint256",
          "name": "tokens",
          "type": "uint256"
        }
      ],
      "name": "EVENT_RECEIVE",
      "type": "event"
    },
    {
      "anonymous": false,
      "inputs": [
        {
          "indexed": true,
          "internalType": "address",
          "name": "user",
          "type": "address"
        },
        {
          "indexed": false,
          "internalType": "uint256",
          "name": "tokens",
          "type": "uint256"
        }
      ],
      "name": "EVENT_STACK",
      "type": "event"
    },
    {
      "anonymous": false,
      "inputs": [
        {
          "indexed": true,
          "internalType": "address",
          "name": "user",
          "type": "address"
        },
        {
          "indexed": false,
          "internalType": "uint256",
          "name": "tokens",
          "type": "uint256"
        }
      ],
      "name": "EVENT_UNSTACK",
      "type": "event"
    },
    {
      "anonymous": false,
      "inputs": [
        {
          "indexed": true,
          "internalType": "address",
          "name": "previousOwner",
          "type": "address"
        },
        {
          "indexed": true,
          "internalType": "address",
          "name": "newOwner",
          "type": "address"
        }
      ],
      "name": "OwnershipTransferred",
      "type": "event"
    },
    {
      "inputs": [
        {
          "internalType": "contract IERC20",
          "name": "StackingAddress",
          "type": "address"
        },
        {
          "internalType": "contract IERC20",
          "name": "TokenAddress",
          "type": "address"
        }
      ],
      "name": "Add_PoolInfo",
      "outputs": [],
      "stateMutability": "nonpayable",
      "type": "function"
    },
    {
      "inputs": [
        {
          "internalType": "uint256",
          "name": "period_id",
          "type": "uint256"
        }
      ],
      "name": "Do_Receiving",
      "outputs": [
        {
          "internalType": "bool",
          "name": "",
          "type": "bool"
        }
      ],
      "stateMutability": "nonpayable",
      "type": "function"
    },
    {
      "inputs": [
        {
          "internalType": "uint256",
          "name": "period_id",
          "type": "uint256"
        },
        {
          "internalType": "uint256",
          "name": "stacking_amount",
          "type": "uint256"
        }
      ],
      "name": "Do_Stacking",
      "outputs": [
        {
          "internalType": "bool",
          "name": "",
          "type": "bool"
        }
      ],
      "stateMutability": "nonpayable",
      "type": "function"
    },
    {
      "inputs": [
        {
          "internalType": "uint256",
          "name": "period_id",
          "type": "uint256"
        }
      ],
      "name": "Do_Unstacking",
      "outputs": [
        {
          "internalType": "bool",
          "name": "",
          "type": "bool"
        }
      ],
      "stateMutability": "nonpayable",
      "type": "function"
    },
    {
      "inputs": [
        {
          "internalType": "uint256",
          "name": "period_id",
          "type": "uint256"
        }
      ],
      "name": "Get_Game_Info",
      "outputs": [
        {
          "internalType": "contract IERC20",
          "name": "",
          "type": "address"
        },
        {
          "internalType": "contract IERC20",
          "name": "",
          "type": "address"
        },
        {
          "internalType": "uint256",
          "name": "",
          "type": "uint256"
        },
        {
          "internalType": "uint256",
          "name": "",
          "type": "uint256"
        }
      ],
      "stateMutability": "view",
      "type": "function"
    },
    {
      "inputs": [
        {
          "internalType": "address",
          "name": "user",
          "type": "address"
        }
      ],
      "name": "Get_User_Info",
      "outputs": [
        {
          "internalType": "address",
          "name": "",
          "type": "address"
        },
        {
          "internalType": "bool[5]",
          "name": "",
          "type": "bool[5]"
        },
        {
          "internalType": "uint256[5]",
          "name": "",
          "type": "uint256[5]"
        },
        {
          "internalType": "uint256[5]",
          "name": "",
          "type": "uint256[5]"
        },
        {
          "internalType": "uint256[5]",
          "name": "",
          "type": "uint256[5]"
        }
      ],
      "stateMutability": "view",
      "type": "function"
    },
    {
      "inputs": [
        {
          "internalType": "uint256",
          "name": "period_id",
          "type": "uint256"
        },
        {
          "internalType": "address",
          "name": "user",
          "type": "address"
        }
      ],
      "name": "ViewReceiving",
      "outputs": [
        {
          "internalType": "uint256",
          "name": "",
          "type": "uint256"
        }
      ],
      "stateMutability": "view",
      "type": "function"
    },
    {
      "inputs": [
        {
          "internalType": "uint256",
          "name": "",
          "type": "uint256"
        }
      ],
      "name": "m_Pool_Map",
      "outputs": [
        {
          "internalType": "contract IERC20",
          "name": "m_Stacking_Address",
          "type": "address"
        },
        {
          "internalType": "contract IERC20",
          "name": "m_Token_Address",
          "type": "address"
        },
        {
          "internalType": "uint256",
          "name": "m_Stacking_Block_Number_Start",
          "type": "uint256"
        },
        {
          "internalType": "uint256",
          "name": "m_Stacking_Block_Number_Stop",
          "type": "uint256"
        },
        {
          "internalType": "uint256",
          "name": "m_Total_Stacking",
          "type": "uint256"
        },
        {
          "internalType": "uint256",
          "name": "m_User_Count",
          "type": "uint256"
        },
        {
          "internalType": "uint256",
          "name": "m_WeightOfBlock",
          "type": "uint256"
        },
        {
          "internalType": "uint256",
          "name": "m_BlockNumOfLastUpdate",
          "type": "uint256"
        },
        {
          "internalType": "uint256",
          "name": "m_SumOfWeightedStackingReciprocale128",
          "type": "uint256"
        },
        {
          "internalType": "uint256",
          "name": "m_FIX_POINT",
          "type": "uint256"
        }
      ],
      "stateMutability": "view",
      "type": "function"
    },
    {
      "inputs": [],
      "name": "owner",
      "outputs": [
        {
          "internalType": "address",
          "name": "",
          "type": "address"
        }
      ],
      "stateMutability": "view",
      "type": "function"
    },
    {
      "inputs": [],
      "name": "renounceOwnership",
      "outputs": [],
      "stateMutability": "nonpayable",
      "type": "function"
    },
    {
      "inputs": [
        {
          "internalType": "address",
          "name": "newOwner",
          "type": "address"
        }
      ],
      "name": "transferOwnership",
      "outputs": [],
      "stateMutability": "nonpayable",
      "type": "function"
    }
  ],
  "bytecode": "0x60806040523480156200001157600080fd5b50600062000024620000c860201b60201c565b9050806000806101000a81548173ffffffffffffffffffffffffffffffffffffffff021916908373ffffffffffffffffffffffffffffffffffffffff1602179055508073ffffffffffffffffffffffffffffffffffffffff16600073ffffffffffffffffffffffffffffffffffffffff167f8be0079c531659141344cd1fd0a4f28419497f9722a3daafe3b4186f6b6457e060405160405180910390a350620000d0565b600033905090565b61424f80620000e06000396000f3fe608060405234801561001057600080fd5b50600436106100a95760003560e01c80638da5cb5b116100715780638da5cb5b1461017f5780639f48af971461019d578063b0575441146101cd578063e4e2a729146101e9578063f2fde38b14610222578063fa25d72f1461023e576100a9565b806344ba1165146100ae5780634bc20701146100de5780634ecdac2a14610111578063715018a6146101415780638ce1842a1461014b575b600080fd5b6100c860048036038101906100c39190613888565b61026e565b6040516100d59190613c85565b60405180910390f35b6100f860048036038101906100f39190613888565b610919565b6040516101089493929190613ca0565b60405180910390f35b61012b600480360381019061012691906138b1565b610a9e565b6040516101389190613e63565b60405180910390f35b6101496110d3565b005b610165600480360381019061016091906137fa565b61120d565b604051610176959493929190613c06565b60405180910390f35b61018761146c565b6040516101949190613bb4565b60405180910390f35b6101b760048036038101906101b291906138ed565b611495565b6040516101c49190613c85565b60405180910390f35b6101e760048036038101906101e2919061384c565b6119cb565b005b61020360048036038101906101fe9190613888565b611c0b565b6040516102199a99989796959493929190613ce5565b60405180910390f35b61023c600480360381019061023791906137fa565b611caf565b005b61025860048036038101906102539190613888565b611e58565b6040516102659190613c85565b60405180910390f35b60008160011515600260003373ffffffffffffffffffffffffffffffffffffffff1673ffffffffffffffffffffffffffffffffffffffff16815260200190815260200160002060000182600581106102ef577f4e487b7100000000000000000000000000000000000000000000000000000000600052603260045260246000fd5b602091828204019190069054906101000a900460ff1615151461031157600080fd5b60011515600260003373ffffffffffffffffffffffffffffffffffffffff1673ffffffffffffffffffffffffffffffffffffffff168152602001908152602001600020600001846005811061038f577f4e487b7100000000000000000000000000000000000000000000000000000000600052603260045260246000fd5b602091828204019190069054906101000a900460ff161515146103e7576040517f08c379a00000000000000000000000000000000000000000000000000000000081526004016103de90613dc3565b60405180910390fd5b6103f083612173565b6103fa3384612561565b6000600260003373ffffffffffffffffffffffffffffffffffffffff1673ffffffffffffffffffffffffffffffffffffffff1681526020019081526020016000206006018460058110610476577f4e487b7100000000000000000000000000000000000000000000000000000000600052603260045260246000fd5b015490506105103382600187815481106104b9577f4e487b7100000000000000000000000000000000000000000000000000000000600052603260045260246000fd5b90600052602060002090600a020160000160009054906101000a900473ffffffffffffffffffffffffffffffffffffffff1673ffffffffffffffffffffffffffffffffffffffff16612ff79092919063ffffffff16565b61051984611e58565b506105a881600260003373ffffffffffffffffffffffffffffffffffffffff1673ffffffffffffffffffffffffffffffffffffffff1681526020019081526020016000206006018660058110610598577f4e487b7100000000000000000000000000000000000000000000000000000000600052603260045260246000fd5b015461307d90919063ffffffff16565b9050600260003373ffffffffffffffffffffffffffffffffffffffff1673ffffffffffffffffffffffffffffffffffffffff1681526020019081526020016000206006018560058110610624577f4e487b7100000000000000000000000000000000000000000000000000000000600052603260045260246000fd5b01600082919050555061068b816001868154811061066b577f4e487b7100000000000000000000000000000000000000000000000000000000600052603260045260246000fd5b90600052602060002090600a02016004015461307d90919063ffffffff16565b9050600185815481106106c7577f4e487b7100000000000000000000000000000000000000000000000000000000600052603260045260246000fd5b90600052602060002090600a02016004016000829190505550600a811015801561076c5750600a600260003373ffffffffffffffffffffffffffffffffffffffff1673ffffffffffffffffffffffffffffffffffffffff1681526020019081526020016000206006018560058110610768577f4e487b7100000000000000000000000000000000000000000000000000000000600052603260045260246000fd5b0154105b156108c0576107cf60018086815481106107af577f4e487b7100000000000000000000000000000000000000000000000000000000600052603260045260246000fd5b90600052602060002090600a02016005015461307d90919063ffffffff16565b90506001858154811061080b577f4e487b7100000000000000000000000000000000000000000000000000000000600052603260045260246000fd5b90600052602060002090600a020160050160008291905055506000600260003373ffffffffffffffffffffffffffffffffffffffff1673ffffffffffffffffffffffffffffffffffffffff16815260200190815260200160002060000185600581106108a0577f4e487b7100000000000000000000000000000000000000000000000000000000600052603260045260246000fd5b602091828204019190066101000a81548160ff0219169083151502179055505b3373ffffffffffffffffffffffffffffffffffffffff167ff2a9ab307c557ed54a2293b5d32af8e74f86197b6e0978fcae82cc6856ffa0f6826040516109069190613e63565b60405180910390a2600192505050919050565b60008060008060018581548110610959577f4e487b7100000000000000000000000000000000000000000000000000000000600052603260045260246000fd5b90600052602060002090600a020160000160009054906101000a900473ffffffffffffffffffffffffffffffffffffffff16600186815481106109c5577f4e487b7100000000000000000000000000000000000000000000000000000000600052603260045260246000fd5b90600052602060002090600a020160010160009054906101000a900473ffffffffffffffffffffffffffffffffffffffff1660018781548110610a31577f4e487b7100000000000000000000000000000000000000000000000000000000600052603260045260246000fd5b90600052602060002090600a02016004015460018881548110610a7d577f4e487b7100000000000000000000000000000000000000000000000000000000600052603260045260246000fd5b90600052602060002090600a02016005015493509350935093509193509193565b60008043905060018481548110610ade577f4e487b7100000000000000000000000000000000000000000000000000000000600052603260045260246000fd5b90600052602060002090600a020160030154811115610b465760018481548110610b31577f4e487b7100000000000000000000000000000000000000000000000000000000600052603260045260246000fd5b90600052602060002090600a02016003015490505b60018481548110610b80577f4e487b7100000000000000000000000000000000000000000000000000000000600052603260045260246000fd5b90600052602060002090600a020160020154811015610be85760018481548110610bd3577f4e487b7100000000000000000000000000000000000000000000000000000000600052603260045260246000fd5b90600052602060002090600a02016002015490505b6000610c4860018681548110610c27577f4e487b7100000000000000000000000000000000000000000000000000000000600052603260045260246000fd5b90600052602060002090600a0201600701548361307d90919063ffffffff16565b915050600060018681548110610c87577f4e487b7100000000000000000000000000000000000000000000000000000000600052603260045260246000fd5b90600052602060002090600a020160080154905060008214610e3957600060018781548110610cdf577f4e487b7100000000000000000000000000000000000000000000000000000000600052603260045260246000fd5b90600052602060002090600a0201600901549050600060018881548110610d2f577f4e487b7100000000000000000000000000000000000000000000000000000000600052603260045260246000fd5b90600052602060002090600a0201600401549050610d5681836130a590919063ffffffff16565b905080925050610dcc60018981548110610d99577f4e487b7100000000000000000000000000000000000000000000000000000000600052603260045260246000fd5b90600052602060002090600a020160060154610dbe868561310290919063ffffffff16565b61311890919063ffffffff16565b905080925050610e308260018a81548110610e10577f4e487b7100000000000000000000000000000000000000000000000000000000600052603260045260246000fd5b90600052602060002090600a02016008015461319290919063ffffffff16565b90508093505050505b600061100090506000610ed0600260008973ffffffffffffffffffffffffffffffffffffffff1673ffffffffffffffffffffffffffffffffffffffff1681526020019081526020016000206015018960058110610ebf577f4e487b7100000000000000000000000000000000000000000000000000000000600052603260045260246000fd5b01548461307d90919063ffffffff16565b915050610ee682826130a590919063ffffffff16565b905080915050610f7a81600260008a73ffffffffffffffffffffffffffffffffffffffff1673ffffffffffffffffffffffffffffffffffffffff1681526020019081526020016000206006018a60058110610f6a577f4e487b7100000000000000000000000000000000000000000000000000000000600052603260045260246000fd5b015461311890919063ffffffff16565b905080915050610fde60018981548110610fbd577f4e487b7100000000000000000000000000000000000000000000000000000000600052603260045260246000fd5b90600052602060002090600a020160090154826130a590919063ffffffff16565b905080915050610ff7828261311890919063ffffffff16565b905080915050611011600a8261311890919063ffffffff16565b90508091505061102b600a826130a590919063ffffffff16565b90508091505060006110c1600260008a73ffffffffffffffffffffffffffffffffffffffff1673ffffffffffffffffffffffffffffffffffffffff168152602001908152602001600020600b018a600581106110b0577f4e487b7100000000000000000000000000000000000000000000000000000000600052603260045260246000fd5b01548361319290919063ffffffff16565b91505080965050505050505092915050565b6110db6131c1565b73ffffffffffffffffffffffffffffffffffffffff166110f961146c565b73ffffffffffffffffffffffffffffffffffffffff161461114f576040517f08c379a000000000000000000000000000000000000000000000000000000000815260040161114690613e03565b60405180910390fd5b600073ffffffffffffffffffffffffffffffffffffffff1660008054906101000a900473ffffffffffffffffffffffffffffffffffffffff1673ffffffffffffffffffffffffffffffffffffffff167f8be0079c531659141344cd1fd0a4f28419497f9722a3daafe3b4186f6b6457e060405160405180910390a360008060006101000a81548173ffffffffffffffffffffffffffffffffffffffff021916908373ffffffffffffffffffffffffffffffffffffffff160217905550565b6000611217613762565b61121f613784565b611227613784565b61122f613784565b85600260008873ffffffffffffffffffffffffffffffffffffffff1673ffffffffffffffffffffffffffffffffffffffff168152602001908152602001600020600001600260008973ffffffffffffffffffffffffffffffffffffffff1673ffffffffffffffffffffffffffffffffffffffff168152602001908152602001600020601001600260008a73ffffffffffffffffffffffffffffffffffffffff1673ffffffffffffffffffffffffffffffffffffffff168152602001908152602001600020600601600260008b73ffffffffffffffffffffffffffffffffffffffff1673ffffffffffffffffffffffffffffffffffffffff168152602001908152602001600020600b0183600580602002604051908101604052809291908260058015611395576020028201916000905b82829054906101000a900460ff1615158152602001906001019060208260000104928301926001038202915080841161135f5790505b50505050509350826005806020026040519081016040528092919082600580156113d4576020028201915b8154815260200190600101908083116113c0575b5050505050925081600580602002604051908101604052809291908260058015611413576020028201915b8154815260200190600101908083116113ff575b5050505050915080600580602002604051908101604052809291908260058015611452576020028201915b81548152602001906001019080831161143e575b505050505090509450945094509450945091939590929450565b60008060009054906101000a900473ffffffffffffffffffffffffffffffffffffffff16905090565b6000801515600260003373ffffffffffffffffffffffffffffffffffffffff1673ffffffffffffffffffffffffffffffffffffffff1681526020019081526020016000206000018460058110611514577f4e487b7100000000000000000000000000000000000000000000000000000000600052603260045260246000fd5b602091828204019190069054906101000a900460ff161515141561153c5761153b836131c9565b5b6115d43330846001878154811061157c577f4e487b7100000000000000000000000000000000000000000000000000000000600052603260045260246000fd5b90600052602060002090600a020160000160009054906101000a900473ffffffffffffffffffffffffffffffffffffffff1673ffffffffffffffffffffffffffffffffffffffff1661346c909392919063ffffffff16565b6000600260003373ffffffffffffffffffffffffffffffffffffffff1673ffffffffffffffffffffffffffffffffffffffff1681526020019081526020016000206006018460058110611650577f4e487b7100000000000000000000000000000000000000000000000000000000600052603260045260246000fd5b0154905061165d84612173565b6116673385612561565b6116c583600186815481106116a5577f4e487b7100000000000000000000000000000000000000000000000000000000600052603260045260246000fd5b90600052602060002090600a02016004015461319290919063ffffffff16565b905060018581548110611701577f4e487b7100000000000000000000000000000000000000000000000000000000600052603260045260246000fd5b90600052602060002090600a020160040160008291905055506117a883600260003373ffffffffffffffffffffffffffffffffffffffff1673ffffffffffffffffffffffffffffffffffffffff1681526020019081526020016000206006018660058110611798577f4e487b7100000000000000000000000000000000000000000000000000000000600052603260045260246000fd5b015461319290919063ffffffff16565b9050600260003373ffffffffffffffffffffffffffffffffffffffff1673ffffffffffffffffffffffffffffffffffffffff1681526020019081526020016000206006018560058110611824577f4e487b7100000000000000000000000000000000000000000000000000000000600052603260045260246000fd5b016000829190505550600a811080156118b95750600a600260003373ffffffffffffffffffffffffffffffffffffffff1673ffffffffffffffffffffffffffffffffffffffff16815260200190815260200160002060060185600581106118b4577f4e487b7100000000000000000000000000000000000000000000000000000000600052603260045260246000fd5b015410155b156119725761191c60018086815481106118fc577f4e487b7100000000000000000000000000000000000000000000000000000000600052603260045260246000fd5b90600052602060002090600a02016005015461319290919063ffffffff16565b905060018581548110611958577f4e487b7100000000000000000000000000000000000000000000000000000000600052603260045260246000fd5b90600052602060002090600a020160050160008291905055505b3373ffffffffffffffffffffffffffffffffffffffff167f0327f40035cb388ced417a16ff0302d0619c283081794ef1750101194254c7bf846040516119b89190613e63565b60405180910390a2600191505092915050565b6119d36131c1565b73ffffffffffffffffffffffffffffffffffffffff166119f161146c565b73ffffffffffffffffffffffffffffffffffffffff1614611a47576040517f08c379a0000000000000000000000000000000000000000000000000000000008152600401611a3e90613e03565b60405180910390fd5b60006040518061014001604052808473ffffffffffffffffffffffffffffffffffffffff1681526020018373ffffffffffffffffffffffffffffffffffffffff1681526020014381526020017fffffffffffffffffffffffffffffffffffffffffffffffffffffffffffffffff81526020016064815260200160018152602001665cd58f8e5017ac815260200143815260200160008152602001700100000000000000000000000000000000815250905060018190806001815401808255809150506001900390600052602060002090600a020160009091909190915060008201518160000160006101000a81548173ffffffffffffffffffffffffffffffffffffffff021916908373ffffffffffffffffffffffffffffffffffffffff16021790555060208201518160010160006101000a81548173ffffffffffffffffffffffffffffffffffffffff021916908373ffffffffffffffffffffffffffffffffffffffff16021790555060408201518160020155606082015181600301556080820151816004015560a0820151816005015560c0820151816006015560e08201518160070155610100820151816008015561012082015181600901555050505050565b60018181548110611c1b57600080fd5b90600052602060002090600a02016000915090508060000160009054906101000a900473ffffffffffffffffffffffffffffffffffffffff16908060010160009054906101000a900473ffffffffffffffffffffffffffffffffffffffff1690806002015490806003015490806004015490806005015490806006015490806007015490806008015490806009015490508a565b611cb76131c1565b73ffffffffffffffffffffffffffffffffffffffff16611cd561146c565b73ffffffffffffffffffffffffffffffffffffffff1614611d2b576040517f08c379a0000000000000000000000000000000000000000000000000000000008152600401611d2290613e03565b60405180910390fd5b600073ffffffffffffffffffffffffffffffffffffffff168173ffffffffffffffffffffffffffffffffffffffff161415611d9b576040517f08c379a0000000000000000000000000000000000000000000000000000000008152600401611d9290613da3565b60405180910390fd5b8073ffffffffffffffffffffffffffffffffffffffff1660008054906101000a900473ffffffffffffffffffffffffffffffffffffffff1673ffffffffffffffffffffffffffffffffffffffff167f8be0079c531659141344cd1fd0a4f28419497f9722a3daafe3b4186f6b6457e060405160405180910390a3806000806101000a81548173ffffffffffffffffffffffffffffffffffffffff021916908373ffffffffffffffffffffffffffffffffffffffff16021790555050565b60008160011515600260003373ffffffffffffffffffffffffffffffffffffffff1673ffffffffffffffffffffffffffffffffffffffff1681526020019081526020016000206000018260058110611ed9577f4e487b7100000000000000000000000000000000000000000000000000000000600052603260045260246000fd5b602091828204019190069054906101000a900460ff16151514611efb57600080fd5b611f0483612173565b611f0e3384612561565b61201f33600260003373ffffffffffffffffffffffffffffffffffffffff1673ffffffffffffffffffffffffffffffffffffffff168152602001908152602001600020600b018560058110611f8c577f4e487b7100000000000000000000000000000000000000000000000000000000600052603260045260246000fd5b015460018681548110611fc8577f4e487b7100000000000000000000000000000000000000000000000000000000600052603260045260246000fd5b90600052602060002090600a020160010160009054906101000a900473ffffffffffffffffffffffffffffffffffffffff1673ffffffffffffffffffffffffffffffffffffffff16612ff79092919063ffffffff16565b3373ffffffffffffffffffffffffffffffffffffffff167f9bc076ab9684d73ecd6375eab067c42d7d8bb8e5fbf446735cef91fcd5a03acd600260003373ffffffffffffffffffffffffffffffffffffffff1673ffffffffffffffffffffffffffffffffffffffff168152602001908152602001600020600b0185600581106120d1577f4e487b7100000000000000000000000000000000000000000000000000000000600052603260045260246000fd5b01546040516120e09190613e63565b60405180910390a26000600260003373ffffffffffffffffffffffffffffffffffffffff1673ffffffffffffffffffffffffffffffffffffffff168152602001908152602001600020600b018460058110612164577f4e487b7100000000000000000000000000000000000000000000000000000000600052603260045260246000fd5b01819055506001915050919050565b6000439050600182815481106121b2577f4e487b7100000000000000000000000000000000000000000000000000000000600052603260045260246000fd5b90600052602060002090600a02016003015481111561221a5760018281548110612205577f4e487b7100000000000000000000000000000000000000000000000000000000600052603260045260246000fd5b90600052602060002090600a02016003015490505b60018281548110612254577f4e487b7100000000000000000000000000000000000000000000000000000000600052603260045260246000fd5b90600052602060002090600a0201600201548110156122bc57600182815481106122a7577f4e487b7100000000000000000000000000000000000000000000000000000000600052603260045260246000fd5b90600052602060002090600a02016002015490505b600061231c600184815481106122fb577f4e487b7100000000000000000000000000000000000000000000000000000000600052603260045260246000fd5b90600052602060002090600a0201600701548361307d90919063ffffffff16565b9150506000811461250c57600060018481548110612363577f4e487b7100000000000000000000000000000000000000000000000000000000600052603260045260246000fd5b90600052602060002090600a02016009015490506000600185815481106123b3577f4e487b7100000000000000000000000000000000000000000000000000000000600052603260045260246000fd5b90600052602060002090600a02016004015490506123da81836130a590919063ffffffff16565b9050809250506124506001868154811061241d577f4e487b7100000000000000000000000000000000000000000000000000000000600052603260045260246000fd5b90600052602060002090600a020160060154612442858561310290919063ffffffff16565b61311890919063ffffffff16565b9050809250506124b48260018781548110612494577f4e487b7100000000000000000000000000000000000000000000000000000000600052603260045260246000fd5b90600052602060002090600a02016008015461319290919063ffffffff16565b9050600186815481106124f0577f4e487b7100000000000000000000000000000000000000000000000000000000600052603260045260246000fd5b90600052602060002090600a0201600801600082919050555050505b8160018481548110612547577f4e487b7100000000000000000000000000000000000000000000000000000000600052603260045260246000fd5b90600052602060002090600a020160070181905550505050565b60001515600260008473ffffffffffffffffffffffffffffffffffffffff1673ffffffffffffffffffffffffffffffffffffffff16815260200190815260200160002060000182600581106125df577f4e487b7100000000000000000000000000000000000000000000000000000000600052603260045260246000fd5b602091828204019190069054906101000a900460ff161515141561260257612ff3565b600043905060018281548110612641577f4e487b7100000000000000000000000000000000000000000000000000000000600052603260045260246000fd5b90600052602060002090600a0201600301548111156126a95760018281548110612694577f4e487b7100000000000000000000000000000000000000000000000000000000600052603260045260246000fd5b90600052602060002090600a02016003015490505b82600260008573ffffffffffffffffffffffffffffffffffffffff1673ffffffffffffffffffffffffffffffffffffffff1681526020019081526020016000206001018360058110612724577f4e487b7100000000000000000000000000000000000000000000000000000000600052603260045260246000fd5b0160006101000a81548173ffffffffffffffffffffffffffffffffffffffff021916908373ffffffffffffffffffffffffffffffffffffffff1602179055506001828154811061279d577f4e487b7100000000000000000000000000000000000000000000000000000000600052603260045260246000fd5b90600052602060002090600a020160020154600260008573ffffffffffffffffffffffffffffffffffffffff1673ffffffffffffffffffffffffffffffffffffffff1681526020019081526020016000206010018360058110612829577f4e487b7100000000000000000000000000000000000000000000000000000000600052603260045260246000fd5b0154116128b15780600260008573ffffffffffffffffffffffffffffffffffffffff1673ffffffffffffffffffffffffffffffffffffffff16815260200190815260200160002060100183600581106128ab577f4e487b7100000000000000000000000000000000000000000000000000000000600052603260045260246000fd5b01819055505b80600260008573ffffffffffffffffffffffffffffffffffffffff1673ffffffffffffffffffffffffffffffffffffffff168152602001908152602001600020601001836005811061292c577f4e487b7100000000000000000000000000000000000000000000000000000000600052603260045260246000fd5b015411156129b55780600260008573ffffffffffffffffffffffffffffffffffffffff1673ffffffffffffffffffffffffffffffffffffffff16815260200190815260200160002060100183600581106129af577f4e487b7100000000000000000000000000000000000000000000000000000000600052603260045260246000fd5b01819055505b600182815481106129ef577f4e487b7100000000000000000000000000000000000000000000000000000000600052603260045260246000fd5b90600052602060002090600a020160030154600260008573ffffffffffffffffffffffffffffffffffffffff1673ffffffffffffffffffffffffffffffffffffffff1681526020019081526020016000206010018360058110612a7b577f4e487b7100000000000000000000000000000000000000000000000000000000600052603260045260246000fd5b015410612b4e5760018281548110612abc577f4e487b7100000000000000000000000000000000000000000000000000000000600052603260045260246000fd5b90600052602060002090600a020160030154600260008573ffffffffffffffffffffffffffffffffffffffff1673ffffffffffffffffffffffffffffffffffffffff1681526020019081526020016000206010018360058110612b48577f4e487b7100000000000000000000000000000000000000000000000000000000600052603260045260246000fd5b01819055505b600061100090506000612c30600260008773ffffffffffffffffffffffffffffffffffffffff1673ffffffffffffffffffffffffffffffffffffffff1681526020019081526020016000206015018560058110612bd4577f4e487b7100000000000000000000000000000000000000000000000000000000600052603260045260246000fd5b015460018681548110612c10577f4e487b7100000000000000000000000000000000000000000000000000000000600052603260045260246000fd5b90600052602060002090600a02016008015461307d90919063ffffffff16565b915050612c4682826130a590919063ffffffff16565b905080915050612cda81600260008873ffffffffffffffffffffffffffffffffffffffff1673ffffffffffffffffffffffffffffffffffffffff1681526020019081526020016000206006018660058110612cca577f4e487b7100000000000000000000000000000000000000000000000000000000600052603260045260246000fd5b015461311890919063ffffffff16565b905080915050612d3e60018581548110612d1d577f4e487b7100000000000000000000000000000000000000000000000000000000600052603260045260246000fd5b90600052602060002090600a020160090154826130a590919063ffffffff16565b905080915050612d57828261311890919063ffffffff16565b905080915050612d71600a8261311890919063ffffffff16565b905080915050612d8b600a826130a590919063ffffffff16565b905080915050612e1f81600260008873ffffffffffffffffffffffffffffffffffffffff1673ffffffffffffffffffffffffffffffffffffffff168152602001908152602001600020600b018660058110612e0f577f4e487b7100000000000000000000000000000000000000000000000000000000600052603260045260246000fd5b015461319290919063ffffffff16565b9050600260008773ffffffffffffffffffffffffffffffffffffffff1673ffffffffffffffffffffffffffffffffffffffff168152602001908152602001600020600b018560058110612e9b577f4e487b7100000000000000000000000000000000000000000000000000000000600052603260045260246000fd5b01600082919050555082600260008773ffffffffffffffffffffffffffffffffffffffff1673ffffffffffffffffffffffffffffffffffffffff1681526020019081526020016000206010018560058110612f1f577f4e487b7100000000000000000000000000000000000000000000000000000000600052603260045260246000fd5b018190555060018481548110612f5e577f4e487b7100000000000000000000000000000000000000000000000000000000600052603260045260246000fd5b90600052602060002090600a020160080154600260008773ffffffffffffffffffffffffffffffffffffffff1673ffffffffffffffffffffffffffffffffffffffff1681526020019081526020016000206015018560058110612fea577f4e487b7100000000000000000000000000000000000000000000000000000000600052603260045260246000fd5b01819055505050505b5050565b6130788363a9059cbb60e01b8484604051602401613016929190613c5c565b604051602081830303815290604052907bffffffffffffffffffffffffffffffffffffffffffffffffffffffff19166020820180517bffffffffffffffffffffffffffffffffffffffffffffffffffffffff83818316178352505050506134f5565b505050565b60008083831115613094576000809150915061309e565b6001838503915091505b9250929050565b60008060008314156130bd57600080915091506130fb565b60018385816130f5577f4e487b7100000000000000000000000000000000000000000000000000000000600052601260045260246000fd5b04915091505b9250929050565b600081836131109190613f0a565b905092915050565b600080600084141561313157600160009150915061318b565b600083850290508385828161316f577f4e487b7100000000000000000000000000000000000000000000000000000000600052601260045260246000fd5b041461318257600080925092505061318b565b60018192509250505b9250929050565b60008060008385019050848110156131b15760008092509250506131ba565b60018192509250505b9250929050565b600033905090565b6001600260003373ffffffffffffffffffffffffffffffffffffffff1673ffffffffffffffffffffffffffffffffffffffff1681526020019081526020016000206000018260058110613245577f4e487b7100000000000000000000000000000000000000000000000000000000600052603260045260246000fd5b602091828204019190066101000a81548160ff02191690831515021790555033600260003373ffffffffffffffffffffffffffffffffffffffff1673ffffffffffffffffffffffffffffffffffffffff16815260200190815260200160002060010182600581106132df577f4e487b7100000000000000000000000000000000000000000000000000000000600052603260045260246000fd5b0160006101000a81548173ffffffffffffffffffffffffffffffffffffffff021916908373ffffffffffffffffffffffffffffffffffffffff16021790555043600260003373ffffffffffffffffffffffffffffffffffffffff1673ffffffffffffffffffffffffffffffffffffffff1681526020019081526020016000206010018260058110613399577f4e487b7100000000000000000000000000000000000000000000000000000000600052603260045260246000fd5b0181905550600181815481106133d8577f4e487b7100000000000000000000000000000000000000000000000000000000600052603260045260246000fd5b90600052602060002090600a020160080154600260003373ffffffffffffffffffffffffffffffffffffffff1673ffffffffffffffffffffffffffffffffffffffff1681526020019081526020016000206015018260058110613464577f4e487b7100000000000000000000000000000000000000000000000000000000600052603260045260246000fd5b018190555050565b6134ef846323b872dd60e01b85858560405160240161348d93929190613bcf565b604051602081830303815290604052907bffffffffffffffffffffffffffffffffffffffffffffffffffffffff19166020820180517bffffffffffffffffffffffffffffffffffffffffffffffffffffffff83818316178352505050506134f5565b50505050565b6000613557826040518060400160405280602081526020017f5361666545524332303a206c6f772d6c6576656c2063616c6c206661696c65648152508573ffffffffffffffffffffffffffffffffffffffff166135bc9092919063ffffffff16565b90506000815111156135b757808060200190518101906135779190613823565b6135b6576040517f08c379a00000000000000000000000000000000000000000000000000000000081526004016135ad90613e43565b60405180910390fd5b5b505050565b60606135cb84846000856135d4565b90509392505050565b606082471015613619576040517f08c379a000000000000000000000000000000000000000000000000000000000815260040161361090613de3565b60405180910390fd5b613622856136e8565b613661576040517f08c379a000000000000000000000000000000000000000000000000000000000815260040161365890613e23565b60405180910390fd5b6000808673ffffffffffffffffffffffffffffffffffffffff16858760405161368a9190613b9d565b60006040518083038185875af1925050503d80600081146136c7576040519150601f19603f3d011682016040523d82523d6000602084013e6136cc565b606091505b50915091506136dc8282866136fb565b92505050949350505050565b600080823b905060008111915050919050565b6060831561370b5782905061375b565b60008351111561371e5782518084602001fd5b816040517f08c379a00000000000000000000000000000000000000000000000000000000081526004016137529190613d81565b60405180910390fd5b9392505050565b6040518060a00160405280600590602082028036833780820191505090505090565b6040518060a00160405280600590602082028036833780820191505090505090565b6000813590506137b5816141bd565b92915050565b6000815190506137ca816141d4565b92915050565b6000813590506137df816141eb565b92915050565b6000813590506137f481614202565b92915050565b60006020828403121561380c57600080fd5b600061381a848285016137a6565b91505092915050565b60006020828403121561383557600080fd5b6000613843848285016137bb565b91505092915050565b6000806040838503121561385f57600080fd5b600061386d858286016137d0565b925050602061387e858286016137d0565b9150509250929050565b60006020828403121561389a57600080fd5b60006138a8848285016137e5565b91505092915050565b600080604083850312156138c457600080fd5b60006138d2858286016137e5565b92505060206138e3858286016137a6565b9150509250929050565b6000806040838503121561390057600080fd5b600061390e858286016137e5565b925050602061391f858286016137e5565b9150509250929050565b60006139358383613a16565b60208301905092915050565b600061394d8383613b7f565b60208301905092915050565b61396281613f64565b82525050565b61397181613e92565b61397b8184613ed8565b925061398682613e7e565b8060005b838110156139b757815161399e8782613929565b96506139a983613ebe565b92505060018101905061398a565b505050505050565b6139c881613e9d565b6139d28184613ee3565b92506139dd82613e88565b8060005b83811015613a0e5781516139f58782613941565b9650613a0083613ecb565b9250506001810190506139e1565b505050505050565b613a1f81613f76565b82525050565b613a2e81613f76565b82525050565b6000613a3f82613ea8565b613a498185613eee565b9350613a59818560208601613fe2565b80840191505092915050565b613a6e81613fbe565b82525050565b6000613a7f82613eb3565b613a898185613ef9565b9350613a99818560208601613fe2565b613aa281614044565b840191505092915050565b6000613aba602683613ef9565b9150613ac582614055565b604082019050919050565b6000613add601583613ef9565b9150613ae8826140a4565b602082019050919050565b6000613b00602683613ef9565b9150613b0b826140cd565b604082019050919050565b6000613b23602083613ef9565b9150613b2e8261411c565b602082019050919050565b6000613b46601d83613ef9565b9150613b5182614145565b602082019050919050565b6000613b69602a83613ef9565b9150613b748261416e565b604082019050919050565b613b8881613fb4565b82525050565b613b9781613fb4565b82525050565b6000613ba98284613a34565b915081905092915050565b6000602082019050613bc96000830184613959565b92915050565b6000606082019050613be46000830186613959565b613bf16020830185613959565b613bfe6040830184613b8e565b949350505050565b60006102a082019050613c1c6000830188613959565b613c296020830187613968565b613c3660c08301866139bf565b613c446101608301856139bf565b613c526102008301846139bf565b9695505050505050565b6000604082019050613c716000830185613959565b613c7e6020830184613b8e565b9392505050565b6000602082019050613c9a6000830184613a25565b92915050565b6000608082019050613cb56000830187613a65565b613cc26020830186613a65565b613ccf6040830185613b8e565b613cdc6060830184613b8e565b95945050505050565b600061014082019050613cfb600083018d613a65565b613d08602083018c613a65565b613d15604083018b613b8e565b613d22606083018a613b8e565b613d2f6080830189613b8e565b613d3c60a0830188613b8e565b613d4960c0830187613b8e565b613d5660e0830186613b8e565b613d64610100830185613b8e565b613d72610120830184613b8e565b9b9a5050505050505050505050565b60006020820190508181036000830152613d9b8184613a74565b905092915050565b60006020820190508181036000830152613dbc81613aad565b9050919050565b60006020820190508181036000830152613ddc81613ad0565b9050919050565b60006020820190508181036000830152613dfc81613af3565b9050919050565b60006020820190508181036000830152613e1c81613b16565b9050919050565b60006020820190508181036000830152613e3c81613b39565b9050919050565b60006020820190508181036000830152613e5c81613b5c565b9050919050565b6000602082019050613e786000830184613b8e565b92915050565b6000819050919050565b6000819050919050565b600060059050919050565b600060059050919050565b600081519050919050565b600081519050919050565b6000602082019050919050565b6000602082019050919050565b600081905092915050565b600081905092915050565b600081905092915050565b600082825260208201905092915050565b6000613f1582613fb4565b9150613f2083613fb4565b9250817fffffffffffffffffffffffffffffffffffffffffffffffffffffffffffffffff0483118215151615613f5957613f58614015565b5b828202905092915050565b6000613f6f82613f94565b9050919050565b60008115159050919050565b6000613f8d82613f64565b9050919050565b600073ffffffffffffffffffffffffffffffffffffffff82169050919050565b6000819050919050565b6000613fc982613fd0565b9050919050565b6000613fdb82613f94565b9050919050565b60005b83811015614000578082015181840152602081019050613fe5565b8381111561400f576000848401525b50505050565b7f4e487b7100000000000000000000000000000000000000000000000000000000600052601160045260246000fd5b6000601f19601f8301169050919050565b7f4f776e61626c653a206e6577206f776e657220697320746865207a65726f206160008201527f6464726573730000000000000000000000000000000000000000000000000000602082015250565b7f596f752068617665206e6f7420537461636b696e670000000000000000000000600082015250565b7f416464726573733a20696e73756666696369656e742062616c616e636520666f60008201527f722063616c6c0000000000000000000000000000000000000000000000000000602082015250565b7f4f776e61626c653a2063616c6c6572206973206e6f7420746865206f776e6572600082015250565b7f416464726573733a2063616c6c20746f206e6f6e2d636f6e7472616374000000600082015250565b7f5361666545524332303a204552433230206f7065726174696f6e20646964206e60008201527f6f74207375636365656400000000000000000000000000000000000000000000602082015250565b6141c681613f64565b81146141d157600080fd5b50565b6141dd81613f76565b81146141e857600080fd5b50565b6141f481613f82565b81146141ff57600080fd5b50565b61420b81613fb4565b811461421657600080fd5b5056fea264697066735822122025163917e22c846733b00d4c50542a8ddf95ff745682bb9b91fdac4e3928a53064736f6c63430008030033",
  "linkReferences": {},
  "deployedLinkReferences": {}
}